:100EA900020D000002130000020F000002110000F1
:0C0EB9000208000002150000020B0000FF
:100E1D005389FC43890185118C85128A5389CF43EF
:100E2D00891085158D85168BD2A9D2ABD28ED28C19
:070E3D00D2AFD290D2912246
:060BC2008B2A8A2B892C0E
:100BC800AC07E412033F7B357A5E79E67840120180
:100BD80016120373C374349FF53174FE9EF530EF1B
:100BE80024CBFFEE34B9AD07FCE530AB2AAA2BA91C
:100BF8002C120487AB2A052CE52C7002052BF9AAC8
:100C08002BE531120487AF04AB2DAA2EA92FEF12C2
:100C18000487AF05AB2D052FE52F7002052EF9AA25
:050C28002EEF0204871D
:03000B00020F1CC5
:100F1C00B29020900BC28C85088C85098AD28C32B9
:0B0F2C00C28C85118C85128AD28C3299
:03001B00020F379A
:100F3700B29120910BC28E850B8D850C8BD28E3290
:0B0F4700C28E85158D85168BD28E3270
:060C2D008B258A268927B1
:100C330030815E30802C7B917D037F90120DC68FB7
:100C430028AB25AA26A927E528120487752D007548
:100C53002E00752F087B007A007911AF0D120BC29D
:100C630080D17B917D037F90120DC68F28AB25AA7F
:100C730026A927900001E528120499752D00752EE9
:100C830000752F0B7B007A007915AF0E120BC28013
:010C93009FC1
:010C9400223D
:100D93008B258A2689277B91E4FD7F90120DC6ABB4
:100DA30025AA26A927EF1204877B917D017F901244
:100DB3000DC6AB250527E52770020526F9AA26EF00
:030DC300020487A0
:10093C007B917D017F90120DC68F10C3E51095142D
:10094C00FDE49400FCE412033AE4FBFA79F0783FFE
:10095C001201168F308E2F8D2E8C2DE4FFFEFDFC98
:10096C00AB30AA2FA92EA82D1202BC4053750A0138
:10097C00AF30AE2FAD2EAC2D1205BCE4FBFA797066
:10098C007842120116A804A905AA06AB07E4FFFEDB
:10099C007D707C421200218F288E278D268C25AFEE
:1009AC0030AE2FAD2EAC2D1205D2E4FBFA79707857
:1009BC0042120116E4FBFA79C878421200258064D1
:1009CC00E4F50AAF30AE2FAD2EAC2D12000E8F30E9
:1009DC008E2F8D2E8C2D1205BCE4FBFA797078428B
:1009EC00120116A804A905AA06AB07E4FFFE7D7048
:1009FC007C421200218F288E278D268C25AF30AE9D
:100A0C002FAD2EAC2D1205D2E4FBFA797078421280
:100A1C000116A804A905AA06AB07E4FFFE7DC87C55
:100A2C00421200218F2C8E2B8D2A8C29AB2CAA2BB9
:100A3C00A92AA829AF28AE27AD26AC2512021F1271
:100A4C0008348F348E338D328C31AF34AE33AD32BB
:020A5C00AC31BB
:010A5E002275
:0E06E2008F288E278D268C258B298A2A892B1E
:1006F0007FEF7E6A7D927C43AB28AA27A926A82596
:100700001201161203738E2F8F30E50A6401600305
:10071000020790AB29052BE52B7002052AF9AA2ABE
:10072000120441F535120441FE7C00E42535F53212
:10073000EC3EF531E5322530F534E531352FF53332
:10074000120487AB29052BE52B7002052AF9AA2A8A
:10075000E534120487AB2C052EE52E7002052DF929
:10076000AA2D120441F535120441FEE42535F53277
:10077000EC3EF531C3E5329530F534E531952FF592
:1007800033120487AB2C052EE52E7002052D807BDD
:10079000AB29052BE52B7002052AF9AA2A12044180
:1007A000F535120441FE7C00E42535F532EC3EF5CA
:1007B00031C3E5329530F534E531952FF533120428
:1007C00087AB29052BE52B7002052AF9AA2AE53407
:1007D000120487AB2C052EE52E7002052DF9AA2DEB
:1007E000120441F535120441FEE42535F532EC3EA4
:1007F000F531E5322530F534E531352FF533120486
:1008000087AB2C052EE52E7002052DF9AA2DE534B7
:0308100012048748
:0108130022C2
:100D5500120FB0120E1D7B007A00790D120C2D7F3B
:100D6500E87E03120E8B7B007A007913120D931225
:100D7500093C8F248E238D228C21752C00752D0026
:0E0D8500752E087B007A0079111206E280E1DB
:100E8B00D3EF9400EE940040147D727C00ED1D7046
:0D0E9B00011CED4C70F7EF1F70E61E80E3A8
:010EA8002227
:0B0FCE00EF1FAC0670011E4C70F622F5
:0B0FD900303132333435363738390000
:100F6B00C2B58F807F017E00120E8BD2B47F017EC3
:070F7B0000120E8BC2B4222C
:100F8200D2B58F807F017E00120E8BD2B47F017E9C
:070F920000120E8BC2B42215
:100F0000C2A6C2A7C2B4C2B67F38120F6B7F0C1242
:0C0F10000F6B7F06120F6B7F01020F6B4E
:100EC6008C4A8D4B8A4C8B4DE54BBF0104248080A8
:0D0ED6000224C0FF120F6BAF4D120F8222DD
:0C0CD6008F178C188D198B1A8A1B891C33
:100CE200AB1AAA1BA91C851D8275830012045AF532
:100CF2001E60207E00E519251DFDEE3518FCE51E5F
:100D0200FB7A00AF17120EC67F017E00120E8B0512
:030D12001D80CD74
:010D150022BB
:060A5F008F3B8C3C8D3D35
:100A6500C3EA648094805013EB24FFFFEA34FFFE51
:100A7500EFF4FBEEF4FA753E2D8003753E2B7C27D3
:100A85007D10AF03AE021204BB74D92FF582740F2B
:100A95003EF583E493F53F7C277D10AF03AE02124C
:100AA50004BB7E037FE8CFCDCFCECCCE1204BB7482
:100AB500D92FF582740F3EF583E493F5407C037DD1
:100AC500E8AF03AE021204BB7E007F64CFCDCFCE6C
:100AD500CCCE1204BB74D92FF582740F3EF583E496
:100AE50093F5417C007D64AF03AE021204BB7E002A
:100AF5007F0ACFCDCFCECCCE1204BB74D92FF582D1
:100B0500740F3EF583E493F542AE02AF037C007D9E
:100B15000A1204BB74D92DF582740F3CF583E49356
:100B2500F5437B007A00793EAD3DAC3CAF3B020C12
:010B3500D6E9
:100FB000D2A17F017E00120E8BD2A07F017E0002A3
:020FC0000E8B96
:100EE300D2A0D2A17F017E00120FCEC2A07F017ECD
:0D0EF30000120FCEC2A17F017E00020FCEC3
:100F9900C2A0D2A17F017E00120FCED2A07F017E16
:070FA90000120FCEC2A022CE
:100E6B00D2A17F017E00120FCE30A00BE539C394C7
:100E7B00FA5004053980F2C2A17F017E00020FCE29
:100C95008F3AE4F539E53A25E0F53AC2A17F017EC0
:100CA50000120FCE92A07F017E00120FCED2A17F3F
:100CB500017E00120FCE0539E539C3940840D6C22E
:100CC500A17F017E00120E8BD2A07F017E00020E55
:010CD5008B93
:100D1600C2A17F017E00120E8BD2A07F017E00123F
:100D26000E8BE4F539D2A17F017E00120E8BE53AD7
:100D360025E0FFA2A0E4334FF53AC2A17F017E0071
:0E0D4600120E8B0539E539C3940840D9AF3A37
:010D5400227C
:100DF5008F458C468D478A488B49120EE3AF4512C5
:100E05000C95120E6BAF47120C95120E6BAF491273
:080E15000C95120E6B020F99FF
:060DC6008F358D368B37DE
:100DCC00120EE3AF35120C95120E6BAF36120C955A
:100DDC00120E6B120EE3AF37120C95120E6B120D36
:080DEC00168F38120F99AF3881
:010DF40022DC
:100F52005389CF438920758DFD758BFDD28EC29F3B
:090F6200D29ED29CD2AFD2AC2287
:0C0FC200C2AC8F993099FDC299D2AC22CC
:060E44008B4E8A4F89501D
:100E4A00E4FFC2ACAB4EAA4FA9508F827583001241
:100E5A00045A600AF5993099FDC2990F80E6D2AC1E
:010E6A002265
:05000300C298AF992234
:10001E000203DFE86480F8E933E83360110460F02E
:10002E00ED33EC337009E8FCE9FDEAFEEBFF220448
:10003E0060DED3EB9FEA9EE99DE8C2E78CF0C2F743
:10004E0095F0400CE8CCF8E9CDF9EACEFAEBCFFB0F
:10005E001203AA85D0F05804700320D5B3E80470BB
:10006E00075002B2D50203E992D5EC0460F7E4CC56
:10007E00C0E0C398F8603B94186008400DD0E0FBD8
:10008E000203C1E4FBFAC9FC8028E830E406E4C9A7
:10009E00FBE4CAFCE830E305E4C9CACBFCE854072C
:1000AE006010F8C3E913F9EA13FAEB13FBEC13FC37
:1000BE00D8F130F52FC3E49CFCEF9BFFEE9AFEEDDA
:1000CE0099FDD0E0FBEF4E4D4C701222DB03020384
:1000DE00E6EC2CFCEF33FFEE33FEED33FDED30E7B7
:1000EE00EB0203C1EF2BFFEE3AFEED39FDD0E0FB44
:1000FE0050130BBB00030203E9ED13FDEE13FEEFED
:08010E0013FFEC13FC0203C116
:10011600EC4D6011E8497017ED33EC3304600DE4E3
:10012600FCFFFEFD22E933E8330470F80203DF1218
:1001360003AA58046009E4CC248150062850090219
:1001460003E92840030203E6C0E0EB4A7044B980A5
:1001560006D0E0FB0203D5EF4E701CBD8008EBFF16
:10016600EAFEE9FD80EBE98DF0A4FEE5F00201FF71
:10017600E9CDF9EAFEEBFFEF89F0A4FCE5F0CE89C4
:10018600F0A42EFFE435F0CD89F0A42DFEE435F081
:100196008067EF4E7005BD80D780C3EF8BF0A4ACAF
:1001A600F0EE8BF0A42CFCE435F0F8EF8AF0A42CEA
:1001B600E5F038FCE433CB8DF0A42CFCE5F03BF8FD
:1001C600EE8AF0A42CFCE5F038F8E433CF89F0A4ED
:1001D6002CFCE5F038CF3400CE89F0A42FFFE5F0F3
:1001E6003EFEE433C98DF0A42EFEE5F039CD8AF04B
:1001F600A42FFFE5F03EFEE43DFD33D0E0FB5007C3
:100206000BBB000F0203E9EC2CFCEF33FFEE33FED1
:06021600ED33FD0203C1FF
:10021C000203E9EC5D046005E8590470030203DF96
:10022C001203AA580460F6EC4860F2EC7004FDFE70
:10023C00FF22C860DB2481C85009C39860025006B5
:10024C000203E69850CAF582E9294B4A7005AB8245
:10025C000203D575F0007C1A7880C3EF9BEE9AED03
:10026C0099400DC3EF9BFFEE9AFEED99FDE842F02D
:10027C00DC23ACF0D0E0FFD0E0FED0E0FDAB822080
:10028C00E7101BEB60BAEC2CFCEF33FFEE33FEED0A
:10029C0033FD0203C1E803F830E705C0F075F00048
:1002AC00EF2FFFEE33FEED33FD40B830E7C280AAEE
:1002BC0074F8CC6480CCC86480C8F58204604FC3E9
:1002CC00EB9FF5F0EA9E42F0E99D42F0E89C45F088
:1002DC00603C501DE5825FFFE582D313CB5BCBF412
:1002EC002B5582FB50280ABA002409B9002008803B
:1002FC001DE5825BFBE582D313CF5FCFF4C3132FD5
:10030C005582FF50090EBE00050DBD00010CC3EB5C
:10031C009FF5F0EA9E42F0E99D42F0E89C45F060C2
:09032C0007CC4820E701B3EC22E4
:1003350075F020800E75F010800575F0087D007E43
:10034500007F003392D530D5031204F1EC33401011
:10035500EF33FFEE33FEED33FDEC33FCD5F0ED224C
:0E036500E5F0247EA2D513CC92E7CDCEFF2288
:10037300EDD2E7CD33EC3392D524814006E4FFFE82
:10038300FDFC22FCE4CFCECDCC24E0501174FF80E1
:10039300EDC3CC13CCCD13CDCE13CECF13CF04707E
:0703A300F030D5DE0204F189
:0D000E00ED33EC3360065004EC6480FC22FE
:100574003A70FA83BCAAE9E43E81E0F8BF9DE9E65B
:100584003F80000039283C1ABB9969663DA335E3D6
:10059400BF255DE73FC90FDB418DDBCCC44936EE97
:1005A40045C9913FC5B0F83D3F800000C317F534FD
:1005B400452FFA73C60AFDDD12066304A2E1920018
:1005C4001420E01590057474041203F480261206B6
:1005D4006330E102B20020E0EB8C358D368E378F2C
:1005E4003890058874041203F4A835A936AA37ABE9
:1005F40038120116ED4C6007300004EC6480FC22D4
:10060400120663C0E08C358D368E378F389005AC7A
:1006140074031203F4A835A936AA37AB38120116AD
:10062400ECC535FCEDC536FDEEC537FEEFC538FF2C
:1006340090059C74031203F4D082A835A936AA3716
:10064400AB38E58230E00712021FB20080A6EFCB80
:10065400FFEECAFEEDC9FDECC8FC12021F8095ED49
:1006640033EC547FCC33920024605007D0E0D0E0C8
:100674000203DF7B837AF97922783E120116EDF9C1
:1006840033ECF83324815011EFFBEEFA12037312AA
:100694000335ECB2E7FC120025ED33EC33602F2474
:1006A40003F8C313FCED92E7FDE82481E4501FEC4A
:1006B400F8EDF9EEFAEFFB120373EF04C2E0FCF578
:1006C4008212033FECB2E7FC120025E58203FAED47
:0E06D40033EC3360071413FCED92E7FDEA22CD
:10081400BE1249253E4CCCCDBEAAAAAB3F800000F7
:100824003E7ADBB03EED63383F24BC7D3F490FDBAD
:10083400ED33ECC2E7CC339200B4FF13ED547F6088
:10084400030203DF7FDB7E0F7DC97C3F02092FC2D9
:1008540001C3947F401E7007EDD2E794904015EFDA
:10086400FBEEFAEDF9ECF87F007E007D807C3F1210
:10087400021FD201ED33EC33248430E705E4C0E0F9
:10088400806D04FAEDD2E754F0C333DAFD54073433
:10089400002323C0E0CCC0E0F8EDC0E0F9EEC0E0F6
:1008A400FAEFC0E0FBE412033FEC24FEFC8C358D30
:1008B400368E378F381201167B007A007980783FA4
:1008C400120025ECC535B2E7FCEDC536FDEEC537A3
:1008D400FEEFC538FFD0E0FBD0E0FAD0E0F9D0E07D
:1008E400F8120025A835A936AA37AB3812021F8C96
:1008F400358D368E378F3890081474031203F4A89C
:1009040035A936AA37AB38120116D0E0600F24207F
:10091400F582E43408F58312050F12002530010B2B
:100924007BDB7A0F79C978BF120025ED33EC336095
:0809340006ECA20092E7FC2290
:1003AA00E9D2E7C933E833F892D5EDD2E7CD33EC99
:0703BA0033FC5002B2D52212
:1003C100EC30E7100FBF000C0EBE00080DBD00049D
:1003D1000BEB6014A2D5EB13FCED92E7FD2274FF49
:1003E100FCFDFEFF22E480F8A2D574FF13FC7D80A2
:0303F100E480EFB6
:1003F400C0E0EFFBEEFAEDF9ECF8120116D0E0F5EF
:10040400F0EFFBEEFAEDF9ECF81204FFA3A3A3A3BB
:10041400E8C0E0E9C0E0EAC0E0EBC0E0C0F01201EF
:100424001612050FA3A3A3A3120025D0F0D0E0FB5E
:0D043400D0E0FAD0E0F9D0E0F8D5F0D42205
:03000000020B36BA
:0C0B3600787FE4F6D8FD758150020B7D3D
:10044100BB010689828A83E0225002E722BBFE02B9
:09045100E32289828A83E49322EC
:10045A00BB010CE58229F582E5833AF583E0225057
:10046A0006E92582F8E622BBFE06E92582F8E222A1
:0D047A00E58229F582E5833AF583E49322BB
:10048700BB010689828A83F0225002F722BBFE0154
:02049700F3224E
:10049900F8BB010DE58229F582E5833AF583E8F099
:1004A900225006E92582C8F622BBFE05E92582C845
:0204B900F2222D
:1004BB00C2D5EC30E709B2D5E4C39DFDE49CFCEE5C
:1004CB0030E715B2D5E4C39FFFE49EFE12051FC3B0
:1004DB00E49DFDE49CFC800312051F30D507C3E4AB
:0604EB009FFFE49EFE22CB
:0E04F100C3E49FFFE49EFEE49DFDE49CFC221C
:1004FF00E493FC740193FD740293FE740393FF2243
:10050F00E493F8740193F9740293FA740393FB2242
:100B4200020D55E493A3F8E493A34003F68001F267
:100B520008DFF48029E493A3F85407240CC8C333B4
:100B6200C4540F4420C8834004F456800146F6DF83
:100B7200E4800B0102040810204080900EA9E47E5C
:100B8200019360BCA3FF543F30E509541FFEE49378
:100B9200A360010ECF54C025E060A840B8E493A33F
:100BA200FAE493A3F8E493A3C8C582C8CAC583CA6A
:100BB200F0A3C8C582C8CAC583CADFE9DEE780BE22
:010EC500002C
:10051F00BC000BBE0029EF8DF084FFADF022E4CCC0
:10052F00F875F008EF2FFFEE33FEEC33FCEE9DEC89
:10053F00984005FCEE9DFE0FD5F0E9E4CEFD22EDCF
:10054F00F8F5F0EE8420D21CFEADF075F008EF2F19
:10055F00FFED33FD4007985006D5F0F222C398FD0A
:05056F000FD5F0EA22A7
:00000001FF
